:020000020000FC
:100000000FEF0DBF08E00EBF00E00093C1000FEF3F
:100010000AB900E00BB90FEF07B900E008B900E03A
:1000200004B90FE105B91FE103B11017E9F30E940C
:100030002D0003B11017C1F3102F00FF0E945600CE
:1000400001FF0E945D0002FF0E94640003FF0E9406
:10005000700004FF0E947C00E7CF20E02395203051
:10006000E9F720E023952030E9F720E023952030C0
:10007000E9F720E023952030E9F720E023952030B0
:10008000E9F720E023952030E9F720E023952030A0
:10009000E9F720E023952030E9F720E02395203090
:1000A000E9F720E023952030E9F7089533953F7074
:1000B0006BB1607F632B6BB908953A953F706BB15C
:1000C000607F632B6BB9089543954F70542F550F84
:1000D000550F550F550F6BB16F70652B6BB90895A8
:1000E0004A954F70542F550F550F550F550F6BB143
:1000F0006F70652B6BB90895732F740F7F7188B182
:10010000807E872B88B974FD449A74FF44980895C3
:00000001FF
